:020000040800F2
:1000000040FE002051030008673C0008833A0008C6
:10001000653C00080D230008C541000800000000F1
:10002000000000000000000000000000B90200080D
:100030005323000800000000FD020008713C000886
:100040006B0300086B0300086B0300086B030008D8
:100050006B0300086B0300086B0300086B030008C8
:100060006B0300086B0300086B0300086B030008B8
:100070006B0300086B030008112300081D23000810
:100080006B0300086B0300086B0300086B03000898
:100090006B0300086B0300086B0300086B03000888
:1000A0006B0300086B0300086B0300086B03000878
:1000B0006B0300086B0300086B0300086B03000868
:1000C0006B0300086B0300086B0300086B03000858
:1000D0006B030008B94100086B0300086B030008BC
:1000E0006B0300086B0300086B0300086B03000838
:1000F0006B0300086B0300086B0300086B03000828
:100100006B0300086B0300086B0300086B03000817
:100110006B0300086B0300086B030008FD3C00083C
:100120006B0300086B0300086B0300086B030008F7
:1001300000F002F800F0B0F80AA090E8000C824449
:100140008344AAF10107DA4501D100F0A5F8AFF226
:10015000090EBAE80F0013F0010F18BFFB1A43F0A5
:100160000103184798710300B87103000A444FF067
:10017000000C10F8013B13F0070408BF10F8014B06
:100180001D1108BF10F8015B641E05D010F8016B4B
:10019000641E01F8016BF9D113F0080F1EBF10F8AF
:1001A000014BAD1C0C1B09D16D1E58BF01F801CBD2
:1001B000FAD505E014F8016B01F8016B6D1EF9D555
:1001C0009142D6D37047000000230024002500266A
:1001D000103A28BF78C1FBD8520728BF30C148BFAA
:1001E0000B6070476E2900F05485702901F0A580DE
:1001F00066292FF01E8465292FF01B8467292FF0B4
:10020000188461292FF0178403681B0A28BF41F066
:100210008001692900F05C81642900F05981752909
:1002200000F056816F2901F03280782901F0718049
:10023000E92900F0CD87E42900F0CA87F52900F00C
:10024000C787EF2901F02F80F82901F0708003683B
:10025000DB0928BF41F08001632901F03183732954
:1002600001F03683E32901F04183F32901F046834D
:10027000002070471FB501F011F904000020002193
:100280002EF066FE401C6060002000212EF04AFE29
:10029000E0601FBD10B510BD01F034FC1146FFF742
:1002A000E9FF27F071FB01F060FC03B4FFF7F2FFF8
:1002B00003BC00F029FC0000224B19680868B0E874
:1002C000F00F80F30988BFF36F8F4FF0000080F3C9
:1002D00011884EF00D0E70470000000006480068BF
:1002E000006880F3088862B661B6BFF34F8FBFF332
:1002F0006F8F00DF00BF00BF08ED00E0EFF3098063
:10030000BFF36F8F0F4B1A6820E9F00F106008B52C
:100310004FF0500080F31188BFF34F8FBFF36F8F02
:100320002EF010F84FF0000080F31188BDE808406F
:1003300019680868B0E8F00F80F30988BFF36F8F81
:10034000704700BF1C000020EFF3058070470000DD
:100350000948804709480047FEE7FEE7FEE7FEE759
:10036000FEE7FEE7FEE7FEE7FEE7FEE70448054995
:10037000054A064B70470000FB3C000831010008AD
:1003800040F8002040FE002040FA002040FA002003
:1003900053EA020C00F069802DE9F04B4FF00006A3
:1003A000002B1FBFB3FA83F503FA05F424FA05F610
:1003B0005E4012BF1643B2FA82F502FA05F4C5F1A7
:1003C00020051EBF22FA05FC44EA0C04203556EA3B
:1003D000044C4FEA144418BF641C4FF000084FF05F
:1003E0000009904271EB030C39D3002919BFB1FA0F
:1003F00081F701FA07F6B0FA80F700FA07F6C7F1BD
:1004000020071EBF20FA07FC46EA0C062037B6FB81
:10041000F4FCA7EB0507103F07F01F0BCBF12006FC
:100420000CFA0BFB2CFA06F644BFB3460026202F2D
:10043000A4BF5E464FF0000B5BEA060C08BF4FF00E
:10044000010B19EB0B09ABFB027C48EB0608C01B48
:1004500006FB02CC0BFB03CC71EB0C01C1E70B4696
:10046000024641464846BDE8F08B13B54FF0000008
:100470004FF00001AFF30080BDE81C407047000062
:100480001CB50C46064B7B4469460090204600F0A4
:1004900028FE04460020694600F036FE20461CBDBA
:1004A0007F0C00000FB41CB5084B06AA7B446946BC
:1004B0000090059800F015FE04460020694600F003
:1004C00023FE20461CBC5DF814FB0000590C000004
:1004D0002DE9F0410646002410687529314616A51D
:1004E00010D000F042FB002802DA404213A507E0DA
:1004F00031688A0701D512A502E0490704D511A584
:10050000012401E000F03AFB00210A2206F1240751
:1005100009E0B0FBF2FCB0FBF2F302FB1C00303050
:1005200078541846491C0028F3D123462A46304601
:10053000BDE8F04100F054BB000000002D000000B9
:100540002B000000200000002DE9F05F89460446E2
:100550004FF0000ADFF874B1FB44C0F820A0204639
:10056000E1688847002874D0252806D0D4E9012105
:100570009047206A401C2062F1E700265F46204633
:10058000E16888472028054607DB312D05D2781918
:1005900010F8200C08B10643F1E7B00701D526F0AA
:1005A0000406C4F81CA00027C4F818A02A2D09D0FE
:1005B000284603F04AFE38B304EB8708303DC8F8FC
:1005C000185019E059F8041B204604EB870291618A
:1005D000E1688847012F054618D1E069002820DA34
:1005E00026F020061DE0D8F8180000EB800005EB8F
:1005F00040003038C8F818002046E16888470546B2
:1006000003F023FE0028EED1012F0AD02E2D08D1B1
:100610002046E16888477F1C0546022F46F02006E9
:10062000C4DBA069002803DA404246F00106A0615D
:10063000F00701D026F010066C2D0BD0682D09D0E4
:100640004C2D39D06A2D35D0742D35D07A2D33D03C
:1006500016E038E0E1682F4620468847B842054654
:1006600009D16C2F26D04FF48060E1680643204604
:100670008847054604E06C2F1AD04FF4807006437B
:100680000DB3A5F14100192802D8203546F40066C3
:100690004A462946204626604E46FFF7A3FD80B114
:1006A00001280BD0F61D26F0070000F1080956E7D7
:1006B0004020E4E78020D8E70020D6E706F10409CF
:1006C0004DE7284652E7206ABDE8F09FE066030048
:1006D00070B5064600F01EFA0468054630460A2248
:1006E000002100F035FE2C6070BD0000014A00F0D2
:1006F00067BE00002003002040EA0103024630B537
:100700009B0710D14FF0013400E008C208C91D1B3F
:100710009D4315EAC41FF8D013F0FF0102F8011B36
:100720000DD01B0AF8E711F8013B002B02F8013B42
:1007300005D011F8013B002B02F8013BF3D130BD8D
:1007400010B5431C02E010F8011B71B18107FAD10A
:100750004FF0013202C88C1A8C4314EAC211F9D04E
:10076000C01A0A0603D0C01E10BDC01A10BD0A046C
:1007700001D0801E10BD0902FCD0401E10BD40EA11
:10078000010370B59B072ED14FF00136042A2AD3FE
:1007900008C810C99D1B9D43121F15EAC61517D026
:1007A000D8B2E1B2401A50EA056110D198B2A1B2B4
:1007B000401A50EA05410AD123F07F4024F07F41DE
:1007C000401A50EA052102D1180EA0EB146070BD4A
:1007D000A342DBD018BA21BA884201D9012070BDEA
:1007E0004FF0FF3070BD0AB9002070BD10F8013B1A
:1007F00011F8014B63B1A3420AD1521E08D010F880
:10080000013B11F8014B1BB1A34201D1521EEDD1A6
:10081000181B70BD032A40F2308010F0030C00F06A
:10082000158011F8013BBCF1020F624498BF11F82A
:1008300001CB00F8013B38BF11F8013BA2F10402E3
:1008400098BF00F801CB38BF00F8013B11F003035B
:1008500000F06780083AC0F0088051F8043B083A7D
:1008600051F804CBA0E80810F5E7121D5CBF51F861
:10087000043B40F8043BAFF30080D20724BF11F8DB
:10088000013B11F801CB48BF11F8012B24BF00F840
:10089000013B00F801CB48BF00F8012B7047431A19
:1008A00028BF9A427FF6B6AF032A1044114440F2A3
:1008B000268010F0030F1EBF11F8013D521E00F8F4
:1008C000013D10F0030F7FF4F6AF11F0030300F0C9
:1008D000AC85083AC0F00B8051F8043D083A51F855
:1008E00004CD40F8043D40F804CDFFF7F3BF121DDE
:1008F0005CBF51F8043D40F8043DAFF30080D207DF
:1009000024BF11F8013D11F801CD48BF11F8012CA9
:1009100024BF00F8013D00F801CD48BF00F8012CCC
:10092000704710B5203AC0F00B80B1E81850203A5B
:10093000A0E81850B1E81850A0E81850BFF4F5AF7F
:100940005FEA027C24BFB1E81850A0E8185044BF09
:1009500018C918C0BDE810405FEA827C24BF51F876
:10096000043B40F8043B08BF7047D20728BF31F86A
:10097000023B48BF11F8012B28BF20F8023B48BFBB
:1009800000F8012B704702F0FF0343EA032242EA1A
:10099000024200F002B84FF000020429C0F01280B9
:1009A00010F0030C00F01B80CCF1040CBCF1020F22
:1009B00018BF00F8012BA8BF20F8022BA1EB0C01F7
:1009C00000F00DB85FEAC17C24BF00F8012B00F8ED
:1009D000012B48BF00F8012B70474FF0000200B513
:1009E000134694469646203922BFA0E80C50A0E852
:1009F0000C50B1F12001BFF4F7AF090728BFA0E800
:100A00000C5048BF0CC05DF804EB890028BF40F8CB
:100A1000042B08BF704748BF20F8022B11F0804F0D
:100A200018BF00F8012B704710B5044610F0030FF3
:100A300008BF11F0030F40F015804FF0013E121F68
:100A4000C0F20E8051F8043BA3EB0E0C2CEA030C11
:100A50001CEACE1C08BF40F8043BF0D0A1F1040111
:100A600002F10402521E08DB11F8013B002B00F8D2
:100A7000013BF7D11146FFF78EFF204610BD000065
:100A80004FF0013C50F8042B51F8043B9A4221D11D
:100A9000A2EB0C03934313EACC1317D150F8042BA9
:100AA00051F8043B9A4215D1A2EB0C03934313EA8D
:100AB000CC130BD150F8042B51F8043B9A4209D1C6
:100AC000A2EB0C03934313EACC13DBD04FF00000EE
:100AD000704700BFD01A01BAB1FA81F101F01801D4
:100AE00022FA01F0CB40C1F12001DBB2C0B2C01A42
:100AF0002CFA01F3D11A914311EAC311E6D17047E0
:100B0000704770477047000001491820ABBEFEE7F0
:100B10002600020000487047E0F7002070B5044648
:100B200085690068C10601D5302600E02026C0078F
:100B300007D070BDD4E9012130469047206A401C9F
:100B400020626D1EF6D570BD70B5044685690078CB
:100B5000C00707D170BDD4E9012120209047206A49
:100B6000401C20626D1EF6D570BD09684A0501D58E
:100B700040B27047C905FCD500B2704709684A0504
:100B800001D5C0B27047C905FCD580B2704770B5B9
:100B90000C460546012A05D02878800600D5EA696A
:100BA000002302E0012305E05B1C934202D2E05CDB
:100BB0000028F9D1A869E618C01AA861286A184463
:100BC00028622846FFF7AAFF04E0D5E9012114F8BE
:100BD000010B9047B442F8D32846FFF7B5FF70BD2C
:100BE0002DE9F0470D4699469246044600F1240847
:100BF0000168880604D5E06921F01001216000E059
:100C00000120A84201DD471B00E00027A1697A19F5
:100C100002EB0900081AA0612078C00602D4204621
:100C2000FFF77CFF002608E0D4E901211AF806004E
:100C30009047206A401C761C20624E45F4DB2078E9
:100C4000C0060AD52046FFF769FF06E0D4E9012176
:100C500030209047206A401C2062381EA7F101070F
:100C6000F4DC07E0D4E9012118F805009047206A78
:100C7000401C2062281EA5F10105F3DC2046FFF789
:100C800063FF2078000602D50220BDE8F08701202E
:100C9000FBE711680268006A530501D508700AE095
:100CA000D30501D5088006E0130603D5C217C1E9B4
:100CB000000200E008600120704770472DE9FF4FF7
:100CC0000C461E464FF0FF378BB0D2E90001DDF82D
:100CD00060800A908A46C1F30A5505B93D46002155
:100CE00008464FF00000BAF1000F00F4400005DAAA
:100CF00000EB80004FF4400101EA50004FEA9059A8
:100D0000B9F1010F00DDB9460A9850EA4A000ED049
:100D100044F61050A5F2FF3545432F14B8F1000FEB
:100D20001ED07542291E1EDDC9F100021CE0B8F17B
:100D3000010F4FF0000001D0302103E0F24305E045
:100D40002154401CB042FBDB3046002200212154DC
:100D50000B99C1F80880C1E900200FB0BDE8F08F01
:100D6000BD1B6D1CDEE74A4600DA694206A800F0AA
:100D700019FE06AB93E8070003AB83E80700504673
:100D80000A9900F0FBFE8DE80700A0F500501F381F
:100D900000900398002D0ADD42F21F014A460844E4
:100DA000002303A90390684601F064F909E0A0F567
:100DB00000504A461F38002303A90390684601F0FB
:100DC0006EF98DE807000004000C03D04FF0FF30EF
:100DD000410800E01046B8F1000F03D00022009255
:100DE00015461EE0751E05D400F05CFB30326255DE
:100DF0006D1EF9D5B3460122084302D000227F1CA4
:100E000004E02078302801D100227F1E002A0997B3
:100E100084D01DE0112D07DA00F044FB303262551A
:100E20006D1C50EA0102F5D1084302D00098C8B108
:100E30000EE00021681E05E0235C625C63542254CE
:100E4000401E491C8142F7DBAB46A81B401E09909F
:100E5000002004F80B000B98099AC0F80880C0E93C
:100E6000002B7AE711264FF0000857E72DE9F04FE5
:100E700088460446D21D22F0070191B0D1E9000155
:100E8000CDE90A0103F09FF902460B98C00F01D08B
:100E90002D2007E02068810701D52B2002E02021CA
:100EA00001EAC000032A099001D0072A05DB0346A6
:100EB0004146204600F0BAFC0BE12078800601D5BF
:100EC000E06900E00620B8F1650F814606D0B8F170
:100ED000660F18D0B8F1670F70D131E00020B9F17A
:100EE000110F009001DB112301E009F101030AAAAF
:100EF00001A90CA8FFF7E2FEDDE90C70002609F15C
:100F00000105834647E001204B4600904FF0004723
:100F10000AAA01A90CA8FFF7D1FEDDE90DB00C99D2
:100F20005D46002610B909F101000D18B9EB050066
:100F300003D4C0F1FF3609F10105A5EB09002BE050
:100F4000B9F1010F01DA4FF001090020B9F1110FD9
:100F50000090484601DD112300E003460AAA01A9DA
:100F60000CA8FFF7ABFEDDE90C704D46002683466A
:100F7000207800070AD4AB4500DA5D4601A8012DB0
:100F800004DD411911F8011C302907D04F4502DA60
:100F900017F1040F04DA012082460FE06D1EEEE720
:100FA000002F02DCED1B3E4403E0781CA84200DD6C
:100FB0007D1CB81B00F1010A4FF0004720780007A4
:100FC00003D4AA4501DB4FF0FF3A0021B7F1004FEF
:100FD0000DF143088DF8431024D002202B23002F5D
:100FE00001DA7F422D230A21021EA0F1010000DC5C
:100FF0005FB197FBF1FC97FBF1F201FB1C7C1746FC
:101000000CF1300C08F801CDEEE7A8F101000370F7
:101010002188090501D5452100E06521A0F10108DD
:1010200000F8011C09980FA9A1EB0807FF1D00B1EA
:101030000120411901EBEA70A1693844081A401EE9
:10104000A0612078C00602D42046FFF767FD09980A
:1010500028B1D4E901219047206A401C2062207801
:10106000C00622D52046FFF759FD1EE0002E04DB06
:10107000B34502DD01A8805D00E03020D4E9012104
:101080009047206A401C2062761CAAF101005FEAAA
:10109000000A0AD100F002FAC0680168405CD4E995
:1010A00001219047206A401C2062281EA5F10105FD
:1010B000DCDC07E0D4E9012118F8010B9047206A35
:1010C000401C2062381EA7F10107F3DC2046FFF721
:1010D0003BFD032011B041E601694A1C026108781A
:1010E000704700B58FB0CDE9013100210591054968
:1010F0007944CDE9031011466846FFF725FA0FB091
:1011000000BD0000E5FFFFFF0A6802F8010B0A605E
:10111000704700002DE9FF5F15468A460446DFF858
:10112000AC80F8440027D8E900103E46CDE9001015
:1011300010E03AF816106A4602A800F0A5FC411C1F
:1011400007D02178890603D5E269391891420DD874
:101150000744761C2078800602D5E069B84205DD98
:10116000AE42E6DB3AF816000028E2D1A069C01BC7
:10117000A0612046FFF7D2FCD8E90010CDE90010AD
:10118000002017E03AF818106A4602A800F07CFC2C
:10119000B0F1FF3F81460BD000250DF1080B05E0B3
:1011A000D4E901211BF8050090476D1C4D45F7D38C
:1011B00008F10100B0428046E4DB206A3844206236
:1011C0002046FFF7C1FCBDE8FF9F00002A5B03003B
:1011D0002DE9F0418046D21D22F007020025D2E918
:1011E0000002F52915A614D0011E72F1000106DADD
:1011F0000023D0EB030063EB020211A608E0D8F84D
:1012000000108B0701D50FA602E0490701D50EA6F5
:1012100001251146002408F1240704E000F042F9FA
:1012200030323A55641C50EA0102F7D12B4632465F
:1012300021464046BDE8F041FFF7D2BC0000000067
:101240002D0000002B0000002000000030B4002121
:1012500000F1240408E002F00705D208303542EA24
:101260004372DB086554491C52EA0305F3D1046854
:10127000002310A2250707D5A40600D421B1C46914
:1012800001230DA2641EC46130BCFFF7A9BC10B5D8
:10129000044621461068FFF771FC02462046BDE86F
:1012A00010400023D2E7D21D22F00701D1E900232C
:1012B000CCE700000000000030000000F0B40D4654
:1012C0000188090502D5214C7C4402E01F4C7C4476
:1012D0000E34002100F1240608E002F00F07120985
:1012E000E75D42EA03721B097754491C52EA03077F
:1012F000F3D102780023120704D5702D06D009B16E
:10130000022311342246F0BCFFF76ABC01231034DB
:10131000F8E770B504460D4621461068FFF72EFC2D
:10132000024629462046BDE870400023C6E7D21D8C
:1013300022F00703D3E90023C0E70368126843F0F3
:10134000200303600823C3610023B7E78C5903001F
:101350002DE9F04791460F4680460446002614F8D2
:10136000015B2DB100F092F80068405DC007F6D136
:101370002B2D02D02D2D18D0641E4A46394620460A
:1013800000F0C0FA27B13968A14201D1C7F8008046
:101390004FF0020471050BD54042002803DDFFF732
:1013A000B9FB0460A007BDE8F08746F48066E4E777
:1013B0000028F8DAFFF7AEFB04606FF00040F2E7B8
:1013C0002DE9F04115460E46040002D12C6804B9FF
:1013D0000BA4204600F088FB0444207870B1274617
:1013E0003146384600F070FB0444207810B10020EC
:1013F00004F8010B38462C60BDE8F0810027F9E7BE
:1014000000000000431A28BF9A427FF68AAA1044BF
:1014100010F0030F11441EBF11F8013D521E00F8D9
:10142000013D10F0030F7FF4F6AF103AC0F00A80D0
:1014300010B531E91850103A20E91850BFF4F9AF4F
:10144000BDE81040530724BF31E9081020E9081017
:1014500044BF51F8043D40F8043D12F0030F08BFAB
:101460007047D20728BF31F8023D48BF11F8012C60
:1014700028BF20F8023D48BF00F8012C704700004B
:1014800000487047E0F700207047000010B500F0FA
:1014900005F8001D10BD00BFB9DA02000048704712
:1014A00000F8002030B5B0F10A024FEA900E71F159
:1014B00000034EEA817EB0EB0E0061EB91014FEA32
:1014C000101E4EEA017E10EB0E0041EB11114FEAA7
:1014D000102E4EEA016E10EB0E0041EB11214FEA87
:1014E000104E4EEA014E10EB0E0041EB1141401838
:1014F00041F100014FEAD00040EA41704FEAD101CA
:1015000010EB80054FEA810444EA907444EB010437
:101510006D1944EB0404521BA3414FF0000348BF74
:101520000A3200D530BD401C41F1000130BD000041
:101530002DE9F04F04460D46D21D22F0070089B078
:10154000D0E900974846394602F03DFE0246F80FC2
:1015500001D02D2307E02068810701D52B2302E06D
:10156000202101EAC0038DF820300BB1012000E0FA
:101570000020032A824601D0072A04DB29462046A0
:1015800000F054F93FE12078800601D40D2500E0F9
:10159000E569C7F30A560D2D49DA00214FEA175BBA
:1015A00008464FF00000002F00F4400007DA00EB7F
:1015B00080004FF4400100EBD07001EA600081151B
:1015C000012901DD4FF0FF3100224FEA850CBCF10B
:1015D000180F06D31346ACF118004FF08052C240EA
:1015E00003E04FF4801323FA0CF30CF10C0CBCF164
:1015F000200F04D3ACF1200C09FA0CF001E007FA3B
:101600000CF000294FF0004801DD18B90FE00ED1B1
:1016100040450CD319EB02095F4121B9404502D185
:101620009F4329EA0209BBEB175F00D0761C208894
:10163000000502D57B48784402E07A48784419389E
:1016400008AA302302F80A30037C0AF10101002EB7
:101650000AF1020A53546A4602DC4FF0300101E0FD
:101660004FF031014FF001088DF8001002D0A6F2C2
:10167000FF3603E059EA470100D06B4E002D02DC33
:101680002178090704D54FF002082E218DF80110AA
:10169000C44600210BE0C7F303433F01C35C491C70
:1016A0006D1E02F80830052908F1010801DA002D45
:1016B000F1DC00210CE000EB1973491C1B786D1E56
:1016C000082902F808304FEA091908F1010801DA7F
:1016D000002DF0DC21688B0602D516E0A8F1010888
:1016E000E04505DD02EB080313F8013C302BF5D093
:1016F000B8F1000F09DD02EB080313F8013C2E2BB3
:1017000003D1090701D4A8F10108002D05DD3E2110
:1017100002F808106D1E08F10108407C002E02F846
:10172000080008F1010804DA2D20764202F80800CA
:1017300002E02B2002F808000A214FF47A7086425A
:1017400008F101080BDB96FBF0F3303302F80830A8
:1017500096FBF0F308F1010800FB136601E0642E2C
:101760000CDB642096FBF0F3303302F8083096FB74
:10177000F0F308F1010800FB136601E00A2E06DB16
:1017800096FBF1F0303002F8080008F1010896FBF2
:10179000F1F001FB1060303002F80800A16908F197
:1017A000010808EB050202EB0A00081AA061207884
:1017B000C00602D42046FFF7B1F9216A08AE01EB5A
:1017C0000A00206204E0D4E9012116F8010B9047D9
:1017D000BAF1010AF7D22078C00602D52046FFF7F9
:1017E0009DF96E4609E016F8010B3E280FD0D4E9AA
:1017F00001219047206A401C2062B8F10108F2D212
:101800002046FFF7A1F909B00320BDE8F08F206A58
:101810002844206203E0D4E90121302090476D1E66
:10182000EBD3F8E75956030002FCFFFF2DE9F04126
:101830001F46044603260168072A01F4006004DB02
:1018400008B116A505E016A503E008B115A500E04E
:1018500015A521F010002060A069C01EA0610FB185
:10186000401EA0612046FFF759F94FB1D4E901218C
:1018700038469047206A401C2062C01C206206E067
:10188000206AFAE7D4E9012115F8010B9047761E8A
:10189000F8D22046FFF758F9BDE8F0814E414E00DE
:1018A0006E616E00494E4600696E660010B5436970
:1018B00013B1AFF3008001E0FFF769F9012010BD1B
:1018C000127800F124010A7000224A700122EDE72B
:1018D00011684FF0FF32E9E710B5436913B1AFF378
:1018E000008001E0FFF716FC012010BD128800F116
:1018F000240182840022C2840122EDE711684FF0A6
:10190000FF32E9E72DE9F05F824615468B46002756
:101910000AF10104B9460078302801D09DB113E0E6
:1019200014F8010B0127782803D0582801D045B1BD
:101930000AE00DB1102D07D1002714F8010B102576
:1019400002E0082500E00A250026B0460EE005FB6F
:10195000080005FB06F101271FFA80F801EB10468D
:10196000B6F5803F00D3B94614F8010B294600F0C4
:10197000EEF80028EBDABBF1000F05D00FB1641EC2
:1019800000E05446CBF80040B9F1000F06D0FFF755
:10199000C1F802210160C81EBDE8F09F48EA064078
:1019A000FAE700002DE9F047814616468AB035482F
:1019B00078440DC88DE80D0032487844801C03AC93
:1019C0000DC884E80D0041F69B300844372190FB98
:1019D000F1F290FBF1F5A5F1800501FB12041B3C2F
:1019E00002D56442012000E00020DFF898A0804684
:1019F0000027FA44AAF1BE0A0EE0E0070AD03246F8
:101A0000684607EB470101230AEB810100F047FB21
:101A10008DE8070064107F1C002CEED1194F7F4425
:101A2000AE3F19E0E80715D007EB04100DF1180AD6
:101A300090E80E008AE80E00C068F04201D19819C3
:101A400008903246012306A903A800F028FB03AB47
:101A500083E807006D10641C002DE3D14FF00103F3
:101A600032466946B8F1000F03A802D000F002FB2D
:101A700001E000F014FBC9E90001C9F808200AB030
:101A8000BDE8F0877053030070B516460C46054656
:101A9000FFF7FCFC036893F80101012806D0FF2C36
:101AA0000FD8185D68B101202C7070BDD3F8070104
:101AB0003246214603F2071303442846BDE870402E
:101AC00018474FF0FF3070BD30B503461D781DB18B
:101AD0000A4603E0AC4201D1181A30BD12F8014B9E
:101AE000002CF7D15B1CF1E730B503461D783DB102
:101AF0000A4612F8014B1CB1AC42FAD15B1CF5E767
:101B0000181A30BD7546FFF7BBFCAE4605006946A6
:101B1000534620F00700854618B020B5FEF726FC96
:101B2000BDE820404FF000064FF000074FF00008DE
:101B30004FF0000B21F00701AC46ACE8C009ACE85F
:101B4000C009ACE8C009ACE8C0098D4670473A2826
:101B500000D2303820F02002412A01D3A2F1370010
:101B6000884201D34FF0FF30704710B50446AFF301
:101B700000802046BDE81040FEF797BB5FEA400CAE
:101B800008BF91F0000F4FEA8C234FEAC12243EACD
:101B900051514FEA1C5018BF00F5F0404FEA300099
:101BA00018BF41F000415FEA6C5C00F02980BCF195
:101BB000FF3F08BF40F080407047130C06BF12047F
:101BC0004FF0100C4FF0000C130E04BF12020CF17A
:101BD000080C130F04BF12010CF1040C930F04BF87
:101BE00092000CF1020CD30F04BF52000CF1010C57
:101BF00011464FF00002A0F11F00A0EB0C0070474F
:101C000011F0004F08BF704731F000413FF4D5AFED
:101C10000B0C06BF09044FF0100C4FF0000C0B0E1C
:101C200004BF09020CF1080C0B0F04BF09010CF1F1
:101C3000040C8B0F04BF89000CF1020CCB0F04BF06
:101C400049000CF1010CCCF12003A0EB0C0022FAAE
:101C500003F302FA0CF241EA030100F101007047BC
:101C600020F07F4C80EA030023F07F47ACEB0703B2
:101C700003F57C5300F0004003F1FF032DE9804998
:101C80004FEA154B09B44FEA144325EA0B4E24EAF8
:101C900003480FF2042606EB132749083E785FEA53
:101CA000320203FB0667C7F5000707FB06F64FEA9B
:101CB00054374FEAD64606F1020607FB066CCCF114
:101CC000005C4FEA1C472CEA074C07FB06F40CFBB0
:101CD00006F504EB15464FEA961634BF00204FF088
:101CE00000404FEAD13706FB07FC4FEA1C4C0CFBC7
:101CF0000BF7D21B03FB0CF761EB07010CFB0EF794
:101D0000B0EB074072EB17420CFB08F734BFA2EBB5
:101D10000742B2EB074261EB17414FEA0C444FEA2E
:101D2000910706FB07FC4FEA1C4C0CFB0BF7B0EBD2
:101D3000C74072EB573203FB0CF734BFA2EBC7422C
:101D4000B2EBC74261EB57310CFB0EF7B0EBC700AB
:101D500072EB57720CFB08F734BFA2EBC702B2EB71
:101D6000C70261EB5771039F4FEA816141EA92110B
:101D700004EBCC044FEAD1374FEA826206FB07FC42
:101D800042EA90124FEA80604FEA1C4C0CFB0BF7C2
:101D9000D21B03FB0CF761EB07010CFB0EF7B0EB5A
:101DA000074072EB17420CFB08F734BFA2EB074267
:101DB000B2EB074261EB17414FEA8C554FEA9107AE
:101DC00004EB9C2406FB07FC4FEA1C4C0CFB0BF7B6
:101DD000B0EBC74072EB573203FB0CF734BFA2EBFA
:101DE000C742B2EBC74261EB57310CFB0EF7B0EBC9
:101DF000C70072EB57720CFB08F734BFA2EBC702A7
:101E0000B2EBC70261EB577115EB4C254FEA8161CC
:101E100041EA92114FEA82624FEAD13742EA9012C8
:101E200006FB07FC44F100044FEA80604FEA1C4CBB
:101E30000CFB0BF7D21B03FB0CF761EB07010CFB50
:101E40000EF7B0EB074072EB17420CFB08F734BFFC
:101E5000A2EB0742B2EB074261EB174115EB1C15F1
:101E60004FEA813141EA92414FEA823242EA90429E
:101E70004FEA80304FEA0C7644F1000448EA03430D
:101E80004EEA0B484FF0000EB2EB080C71EB030763
:101E900024BF624639464EEB0E0E4FF0000B001881
:101EA000524149414BEB0B0BB2EB080C71EB0307B2
:101EB0007BF1000B24BF624639464EEB0E0E4FF00D
:101EC000000B0018524149414BEB0B0BB2EB080CD5
:101ED00071EB03077BF1000B24BF624639464EEBE2
:101EE0000E0E51EA020718BF46F0010616EB0E76F9
:101EF00055F1000254F1000103D5BDE88901BDE8A8
:101F00000088BDE88901BDE80048B619524141EB9F
:101F10000101A3F10103704780807F7E7D7C7B7A85
:101F20007978777676757473727171706F6E6E6D85
:101F30006C6C6B6A6A69686867666665646463632B
:101F400062616160605F5F5E5E5D5D5C5C5B5B5AB1
:101F50005A5959585857575656555555545453531E
:101F600052525251515050504F4F4F4E4E4D4D4D79
:101F70004C4C4C4B4B4B4A4A4A49494948484847C4
:101F80004747474646464545454444444443434302
:101F90004342424242414141002B9C4630D47700AB
:101FA0002BD01CB54FEA370703B44FF010004FF0A9
:101FB0001001BAF1000F06D0BCF1000FDCBF40F0F9
:101FC000080040F008014FF000000FBCBDE81040D1
:101FD0000BF1010BBBF1010F08BF5FEA170722BF2E
:101FE00012F1010211F101014FF0004143F1000330
:101FF00000F0004043EA00007047F9D35708D0E7EB
:1020000046EA064613F1400F4FEA16461FDD13F16C
:10201000200FDFBF16430A46002120335B42BED0AB
:10202000C3F1200746EA064602FA07F74FEA1646CA
:1020300046EA0706C3F1200722FA03F201FA07F77E
:1020400021FA03F14FF0000342EA0702A7E746EA4C
:10205000020646EA06464FEA164646EA0106BCBFB5
:1020600046EA0646360C4FF000034FF000024FF0F0
:10207000000194E72DE9804C9A46934670B491E8AC
:10208000380007C831EA400C48BF34EA430C03D596
:10209000FFF7E6FDFFF780FFF0BCBDE8008C2DE9FF
:1020A000804C9A46934670B491E8380007C810F007
:1020B000804F08BF13F0804F03D100F005F8FFF701
:1020C0006BFFF0BCBDE8008C20F07F4780EA030086
:1020D00023F07F4C07EB0C03A3F57C5300F000408A
:1020E000A3F1FE0392F0000F00F0B38095F0000F13
:1020F00000F077802DE901494FEA11404FEA14467C
:1021000021EA004800FB06FC24EA064708FB06F625
:1021100007FB08F800FB07F718EB06484CEB164CDA
:102120004FEA124B18EB07484FEA15464CEB1740A5
:1021300022EA0B4E0BFB06FC25EA06470EFB06F6D1
:1021400007FB0EFE0BFB07F71EEB064E4CEB164C87
:102150004FF000061EEB074E4CEB174B18EB0B082D
:1021600040F1000018EB0E0B58EB000840F10000A6
:102170008F1A4FF000013CBFC943661B14BFB5EB7B
:10218000040C00213CBFC943F61B4FEA17444EEA3A
:102190008E0E27EA04454FEA1C4704FB07622CEA2F
:1021A000074C05FB07F70CFB05F604FB0CFC16EBD4
:1021B000074642EB174216EB0C4642EB1C421BEB68
:1021C000060658EB0202414146EA9E0601D5BDE8EB
:1021D0000189B619524141EB0101A3F10103BDE8A8
:1021E00001894FEA14454FEA114724EA054621EADE
:1021F000074C05FB07F406FB07F70CFB06F105FB94
:102200000CFC11EB074144EB17444FEA124711EB6A
:102210000C4144EB1C4422EA074C05FB07F206FB89
:1022200007F70CFB06F605FB0CFC16EB074642EB2A
:10223000174216EB0C4642EB1C456A1854F100019C
:1022400048BF7047B619524141EB0101A3F10103A8
:10225000704795F0000F37D04FEA11424FEA14470C
:1022600021EA024624EA074C02FB07F106FB07F7C6
:102270000CFB06F402FB0CFC14EB074441EB17418A
:102280004FEA154714EB0C4441EB1C4125EA074C7F
:1022900002FB07F506FB07F70CFB06F602FB0CFC3E
:1022A00016EB074645EB174516EB0C4645EB1C4273
:1022B000121951F1000148BF7047B619524141EB64
:1022C0000101A3F1010370474FEA14454FEA11479A
:1022D00024EA054621EA074C05FB07F106FB07F750
:1022E0000CFB06F24FF0000605FB0CFC12EB07425C
:1022F00041EB174112EB0C4251EB1C4148BF7047B8
:10230000921841EB0101A3F101037047FEE70000C1
:10231000014800F051B90000F8030020014800F026
:102320004BB90000B403002030B590F840500124B0
:10233000AC40C56B6C60046863604368102B036835
:1023400003D099600068C26030BD9A600068C160C7
:1023500030BD704772B6FEE730B5B3F5804F05D09B
:102360006FF0704140F82210002030BD8C690B687E
:102370008D6823434C688989240144EA052423435A
:1023800043EA014150F82230014C23401943E9E768
:102390000000F0CF10B50A6850F8223023F0010396
:1023A00040F822308C68082C23D000234A6822434E
:1023B000CC681C430B6922431A434B690E4C1A43E9
:1023C000CB691A430B6A1A434B6A1A438B6A1A4346
:1023D000CB6A1A430B6B1A438B6913434A6B096828
:1023E0001A4350F82130A343134340F82130002012
:1023F00010BD4023DAE700007FFF0F0030B5D1E9C0
:10240000003443EA04138C688D89240244EA0544AD
:1024100023430C8A094D00EB820005EB045423434F
:102420000C7D6D0105EB0464896923430B4341680E
:1024300001F040410B434360002030BD0000F0FF3D
:1024400010B590F821100022022905D004218163E3
:1024500080F82020012010BD01680B6823F00E03D6
:102460000B6001680B6823F001030B6090F84030AB
:10247000C46B012101FA03F3636080F8211080F836
:102480002020104610BD00002DE9F05F90F82110CB
:102490000024022903D004218163012485E001681E
:1024A0000A6822F00E020A6001680A6822F001023E
:1024B0000A603F4E3E4FB215DFF8F4C0DFF8F090EF
:1024C000DFF8ECA0DFF8E8B0DFF8E4E00168783F7F
:1024D00013011502ACF1640CA9F15009AAF13C0AF0
:1024E000ABF1280BAEF1140E4FF48018B14227D98E
:1024F000B9420ED0614512D049451DD0514518D082
:10250000594518D0714501D1424615E0294EB142D6
:1025100001D1012210E0274E1436B14201D1102220
:102520000AE0244E2836B14206D0224A3C3291427B
:1025300001D11A4600E02A461E49091F0A602BE015
:10254000B94213D0614517D0494522D051451DD01D
:1025500059451DD0714501D142461AE0B14202D120
:102560004FF0807215E0134EB14201D1012210E00C
:10257000104E1436B14201D110220AE00D4E283619
:10258000B14206D00B4A3C32914201D11A4600E0DA
:102590002A46074980394A60012180F8211000212C
:1025A00080F82010416B01B188472046BDE8F09FBC
:1025B00080000240080402402DE9F05FC16B0A6808
:1025C00001680B68046C4FF0040808FA04F8844DA5
:1025D000844E854FDFF814C2DFF81492DFF814A29E
:1025E000DFF814B2DFF814E218EA020F65D05FEAF0
:1025F000437862D50A68920603D40A6822F004027E
:102600000A60DFF8F0814FF48062016808F1140875
:1026100013011402414524D9A9420DD0B1420FD073
:10262000B9421AD0614515D0494515D0514501D15F
:10263000120312E0594501D104220EE0714501D187
:1026400040220AE06D4D1435A94206D06B4A28326B
:10265000914201D11A4600E022466749091F0A60EB
:1026600029E0A94213D0B14215D0B94220D061452A
:102670001BD049451BD0514502D14FF4800217E0D1
:10268000414502D14FF0806212E0594501D1042248
:102690000EE0714501D140220AE0584D1435A9429F
:1026A00006D0564A2832914201D11A4600E022460D
:1026B0004B4908394A60C16A71E04FF0020808FAD4
:1026C00004F818EA020F70D05FEA83786DD50A68C3
:1026D000920606D40A6822F00A020A60012180F8F4
:1026E0002110DFF810814FF40072016808F114081E
:1026F00013011402414524D9A9420DD0B1420FD093
:10270000B9421AD0614515D0494515D0514501D17E
:10271000120312E0594501D102220EE0714501D1A8
:1027200020220AE0354D1435A94206D0334A28321A
:10273000914201D11A4600E022462F49091F0A6042
:1027400029E0A94213D0B14215D0B94220D0614549
:102750001BD049451BD0514502D14FF4001217E060
:10276000414502D14FF0007212E0594501D10222D9
:102770000EE0714501D120220AE0204D1435A94216
:1027800006D01E4A2832914201D11A4600E0224664
:10279000134908394A60002180F82010816A002915
:1027A0001CD0BDE8F05F0847FFE70825A5401542AB
:1027B00014D01A0712D50A6822F00E020A6090F8A7
:1027C0004020C36B012101FA02F25A60816380F854
:1027D0002110002180F82010016BE0E7BDE8F09F98
:1027E000080002401C000240300002404400024049
:1027F000580002406C000240080402401C040240E1
:1028000030B560B11A4B026814219A4209D2194BB3
:102810001344B3FBF1F18900016417490AE0012078
:1028200030BD134B5B421344B3FBF1F189000164EB
:102830000F490839C163022180F82110136843F65B
:10284000F0718B43F0E901142143D0E902452C4398
:102850002143046921434469214384692143194385
:10286000116000214163012242770177084630BDA3
:1028700008040240F8FFFDBF0000024070B50446A6
:1028800090F82000002501280CD0012084F82000B9
:1028900094F821600020012E06D084F82000022543
:1028A000284670BD022070BD022684F82160A06316
:1028B0002068066826F0010606602046FFF734FD12
:1028C000E06A00282068016802D041F00E0106E0AD
:1028D00021F0040101602068016841F00A010160F3
:1028E0002068016841F001010160D9E730B585B089
:1028F0000020009001900290039017480168002981
:1029000027D1012101601548416941F4807141617D
:102910004069022400F48070049041F20100CDE986
:1029200000040325694603950D4800F01FF84FF693
:102930008070CDE90004694603950A4800F016F856
:102940004CF23370CDE9000469460395064800F067
:102950000DF805B030BD000004000020001002405A
:102960000020014000180140001401402DE9F84FFB
:10297000DFF8C8910024A9F1040B23460F2709F1C1
:10298000040AABF1040ED1E00125A54006EA0502D8
:10299000AA4276D1DFF8A8C14E68A6EB0C086645BE
:1029A0002BD00DDC032E34D005DC36B3012E19D02C
:1029B000022E2FD11BE0112E16D0122E2AD119E093
:1029C000B8F5881F19D006DCB8F5803F15D0B8F5EA
:1029D000801F1FD111E0B8F5001F0ED0B8F5041FFD
:1029E00018D10AE0CB6815E0CB681B1D12E0CB685C
:1029F00008330FE0CB680C330CE08B682BB1012B54
:102A00004FF0080303D0456104E0042302E00561B0
:102A100000E00023FF2A01D8064601E000F1040689
:102A20004FEA840501D9A5F12005D6F8008007FA00
:102A300005FC28EA0C0803FA05F548EA0508C6F87B
:102A400000804D68ED0070D53E4DAE6946F0010640
:102A5000AE61AD6924F0030605F0010500953A4D1D
:102A600006EB050CDCF80850A607360F07FA06F847
:102A700025EA0805DFF8D480404503D14FF000086F
:102A800025E052E0DFF8C880404502D14FF0010850
:102A90001DE0DFF8C080404502D14FF0020816E08B
:102AA000DFF8B480404502D14FF003080FE0DFF8B3
:102AB000AC80404502D14FF0040808E0DFF8A08068
:102AC000404502D14FF0050801E04FF0060808FA32
:102AD00006F848EA0508CCF808804D68D9F8006087
:102AE000ED024D4601D5164300E096432E604D6839
:102AF000DAF80060AD02554601D5164300E0964372
:102B00002E604D68DBF80060AD035D4601D51643CD
:102B100000E096432E604D68DEF80060ED037546D8
:102B200001D5164300E096432E60641C0A681646E1
:102B3000E2407FF429AFBDE8F88F000008040140AF
:102B40000000111000100240000001400008014088
:102B5000000C014000100140001401400018014029
:102B6000001C01408068084000D0012070470AB175
:102B7000016170470904FBE7014880687047000065
:102B80000C0000200248816802781144816070477F
:102B90000C000020074810B5016841F010010160E9
:102BA000032000F0A7F80F2000F006F800F050F81E
:102BB000002010BD0020024030B505461F4887B0F8
:102BC000C16941F02001C161C06906A900F020007F
:102BD000009001A800F036F90498B0B100F052F965
:102BE00040001749174AB0FBF1F11748491E02602F
:102BF000416040F2E7320021C0E903218160816138
:102C000000F058FB040003D015E000F03BF9E8E7C2
:102C10000D4800F07DFB04000DD1372000F03CF89A
:102C2000102D07D200222946372000F043F807482C
:102C3000056000E0012407B0204630BD00100240CE
:102C400040420F00001400403C040020100000200F
:102C50000F4808B5816941F001018161816901F086
:102C600001010091C16941F08051C161C069002238
:102C700000F0805000900F21901E00F01BF80548D6
:102C8000416821F0E06141F00071416008BD000041
:102C90000010024000000140002809DB00F01F0284
:102CA000012191404009800000F1E020C0F80011AE
:102CB00070470000F0B40E4B1B680C46C3F30223B0
:102CC000C3F10705042D00D90425191D072901D2D8
:102CD000002300E0DB1E012606FA05F1491E214013
:102CE00099409E40761E16403143F0BC01F07FBAF9
:102CF0000CED00E0064900F0070208684FF6FF03FC
:102D0000184040EA0220034A104308607047000060
:102D10000CED00E00000FA052DE9F0470F46050034
:102D200061D0434E306800F00700B84209D23068E5
:102D300020F0070038433060306800F00700B842E8
:102D400051D128683B4C810712D5400703D56068F4
:102D500040F4E06060602878000703D5606840F4C4
:102D6000605060606068A96820F0F000084360600F
:102D70002878C00728D06868012810D02168022868
:102D800010D0890700292EDA616821F00301014380
:102D90006160FFF7F1FE804641F288390DE021685D
:102DA0008903EFE78901EDE7FFF7E6FEA0EB0801F5
:102DB000494502D90320BDE8F0876068696800F0E2
:102DC0000C00B0EB810FEFD1306800F00700B84283
:102DD0000BD9306820F0070038433060306800F0CD
:102DE0000700B84201D00120E5E72878400705D563
:102DF0006068E96820F4E0600843606028780007B4
:102E000006D56068296920F4605040EAC10060601E
:102E100000F058F86168084AC1F30311515CC840DA
:102E20000649086006480068FFF7C6FE0020C2E7B2
:102E3000002002400010024072FA02081800002030
:102E4000100000200F2202600C4A536803F00303B5
:102E50004360536803F0F0038360536803F4E06356
:102E6000C36052684FF4E06303EAD202026104488F
:102E7000006800F007000860704700000010024082
:102E8000002002400448054900684968044AC1F32B
:102E90000221515CC8407047180000200010024019
:102EA00082FA02080448054900684968044AC1F3E7
:102EB000C221515CC8407047180000200010024039
:102EC00082FA02080E4A51680E4801F00C03042BE6
:102ED00011D0082B0FD10C48C1F38343C903C05C48
:102EE0000AD55168084AC1F34041921E515C054A17
:102EF0005043B0FBF1F0704704494843704700006D
:102F00000010024000127A0062FA020800093D0037
:102F10002DE9F84F040070D02078C04DC00749D08B
:102F20006868C0F38100012807D06868C0F3810099
:102F3000022809D16868C00306D52868800339D5FE
:102F400060680028E7D035E06068B0F5803F0BD0BE
:102F500010B1B0F5A02F11D0286820F4803028607F
:102F6000286820F4802002E0286840F4803028603F
:102F7000606890B1FFF700FE06460AE0286840F45A
:102F800080202860F0E700BFFFF7F6FD801B642873
:102F900073D828688003F7D50CE0FFF7EDFD0646EF
:102FA00005E000BFFFF7E8FD801B6428F0D8286823
:102FB0008003F7D420789A4E80074FF001094FF034
:102FC000000839D5686810F00C0F07D06868C0F3A6
:102FD0008100022809D16868C00306D428688007E8
:102FE00014D52069012808D110E02069B0B1C6F8D5
:102FF0000090FFF7C1FD074605E00AE1FFF7BCFDC1
:10300000C01B0228C4D828688007F7D528686169E2
:1030100020F0F80040EAC10028600DE0C6F800800A
:10302000FFF7AAFD074604E0FFF7A6FDC01B022834
:1030300023D828688007F7D4207800072CD5794852
:10304000A169D9B1C0F80090FFF796FD074604E0EA
:10305000FFF792FDC01B02280FD8686A8007F7D5DA
:1030600071484FF4FA510068B0FBF1F0009000BFD6
:103070000098411E0091FAD20EE080E0C0F8008076
:10308000FFF77AFD074604E0FFF776FDC01B022834
:1030900075D8686A8007F7D42078400760D5E8695A
:1030A0000027C00008D4E86940F08050E861E86972
:1030B000012700F0805000905C480168C90513D4D6
:1030C0000168834641F480710160FFF755FD824637
:1030D00006E000BFFFF750FDA0EB0A0064284ED8C1
:1030E000DBF80000C005F5D5E06801280AD008B17A
:1030F000052813D0286A20F001002862286A20F0F1
:10310000040002E0286A40F001002862E06841F211
:10311000883B98B1FFF730FD82460BE0286A40F00B
:1031200004002862EEE700BFFFF726FDA0EB0A01CE
:1031300059455AD8286A8007F6D50CE0FFF71CFDE0
:10314000824605E0FFF718FDA0EB0A0159454CD86F
:10315000286A8007F6D41FB1E86920F08050E86142
:10316000E06988B36968C1F38101022944D002286B
:10317000C6F8608004D0FFF7FFFC044638E034E076
:10318000FFF7FAFC074604E0FFF7F6FCC01B022835
:103190002BD828688001F7D4206AB0F5803F05D18C
:1031A0006868A16820F4003008436860D4E9080129
:1031B0000843696821F4741108436860C6F8609098
:1031C000FFF7DAFC044606E025E000BFFFF7D4FC79
:1031D000001B022809D828688001F7D51BE000BF32
:1031E000FFF7CAFC001B022802D90320BDE8F88FB4
:1031F00028688001F4D40EE00128F7D06868226ABC
:1032000000F48031914204D1616A00F47010884268
:1032100001D00120EAE70020E8E7000000100240AA
:10322000000042428004424218000020007000402A
:1032300070B515460E46040007D0A069B0F5807F32
:1032400003D094F8410010B107E0012070BD0020C8
:1032500084F84000204600F01DF804F108012068C1
:10326000FFF798F83146A2682068FFF7C7F8D4E95D
:1032700001022946236BFFF76FF8A168206850F818
:10328000212042F0010240F82120012084F8410071
:10329000002070BDFFF72ABB4FF0E0210428086929
:1032A00003D020F004000861704740F00400FAE702
:1032B0007047704710B5040003D094F83D0010B17A
:1032C00007E0012010BD002084F83C00204600F0FB
:1032D0001EF8022084F83D00211D206800F014FD36
:1032E000012084F8460084F83E0084F83F0084F80A
:1032F000400084F8410084F8420084F8430084F8D8
:10330000440084F8450084F83D00002010BD70475B
:1033100090F83D10012901D001207047022180F86A
:103320003D100168CA6842F00102CA6000680E4997
:1033300088420ED00D4988420BD0B0F1804F08D0A2
:103340000B49884205D00B49884202D00A4988427D
:1033500004D1816801F00701062903D0016841F01A
:103360000101016000207047002C01400034014041
:103370000004004000080040000C0040704770B599
:103380000446006801694FF00005C943890715D458
:10339000C168C943890711D4E91E01610120207762
:1033A000206880698007204602D0FFF7E7FF04E02D
:1033B00000F098F8204600F096F82577206801691B
:1033C000C943490717D4C168C943490713D46FF0EB
:1033D00004010161022020772068806910F4407F99
:1033E000204602D0FFF7CAFF04E000F07BF8204639
:1033F00000F079F8257720680169C943090716D4D8
:10340000C168C943090712D46FF0080101610420A3
:1034100020772068C0698007204602D0FFF7AEFF02
:1034200004E000F05FF8204600F05DF825772068A2
:103430000169C943C90617D4C168C943C90613D471
:103440006FF010010161082020772068C06910F436
:10345000407F204602D0FFF791FF04E000F042F8E1
:10346000204600F040F8257720680169C943C90764
:1034700008D1C168C943C90704D1891E016120462A
:1034800000F032F820680169C943090609D4C1680F
:10349000C943090605D46FF0800101612046FFF79A
:1034A00007FF20680169C943490609D4C168C943B7
:1034B000490605D46FF040010161204600F01EF876
:1034C00020680169C94389060BD4C168C9438906CC
:1034D00007D46FF0200101612046BDE87040FFF77E
:1034E000E8BE70BD7047704700680349884201D14B
:1034F000FFF748BB7047000000140040704738B524
:10350000044690F84200202801D0022038BD61B165
:103510005AB10120206300206063204600F0ACFD1A
:103520000028F3D1216B012901D0012038BD216889
:103530000A684968009121680C3151E8002F42F077
:10354000100241E80023002BF5D138BD18B5034621
:1035500090F84200202801D0022018BD61B15AB174
:103560000120186300205863184600F0CDFD0028A4
:10357000F3D1196B012901D0012018BD19680A681F
:103580004968009119680C3151E8002F42F010028F
:1035900041E80024002CF5D118BD000070B5104D95
:1035A00002682C15531BAA4213D007DC0D4BD2180E
:1035B0000CD0A24201D12AF01AFC70BDA3420BD05C
:1035C000B3F56C4FF9D12AF0F1FB70BD2AF00DFC78
:1035D00070BD2AF00EFC70BD2AF00DFC70BD00001D
:1035E000004C004000BCFFBF70470000F8B5016808
:1035F00004460868CA684B6910F00F0F4FF00005C9
:1036000059D003F0010602F49077374365D0C10723
:1036100005D0D10503D5616C41F00101616441071A
:1036200005D5D90703D0616C41F0020161648107BF
:1036300005D5D90703D0616C41F00401616401072D
:1036400007D502F02001314303D0616C41F008013D
:103650006164616C00293AD0800604D5900602D5D9
:10366000204600F04BFC20684069616CC0F380107C
:10367000090700D460B3204600F00BFC20684069C5
:10368000400621D52068143050E8001F21F0400189
:1036900040E80012002AF5D1E06BA8B16D49416302
:1036A000E06BFEF7F1FE002811D0E06B416B01B03A
:1036B000BDE8F040084783060FD593060DD5204698
:1036C000BDE8F84000F01ABC2046FFF78DFFF8BDBA
:1036D0002046FFF789FF6564F8BD266B2023012E85
:1036E0007CD1C6067AD5D60678D508684868009099
:1036F00048694FF00206400640D5E16B0868406813
:103700000004000CE8D0A28D8242E5D9E0858869EA
:1037100020282DD020680C3050E8001F21F4807143
:1037200040E80012002AF5D12068143050E8001F4C
:1037300021F0010140E80012002AF5D12068143080
:1037400050E8001F21F0400140E80012002AF5D1A6
:1037500084F84230256320680C3050E8001F21F0C7
:10376000100140E80012002AF5D1E06BFEF768FE78
:103770006663A08DE18D401A81B22AE0A08DE18DB3
:10378000401A81B2E08D0028A6D00029A4D022687A
:103790000C3252E8000F20F4907042E80007002F2E
:1037A000F5D12068143050E8002F22F0010240E8E3
:1037B0000027002FF5D184F84230256320680C30B3
:1037C00050E8002F22F0100240E80023002BF5D132
:1037D00066632046FFF7E2FEF8BDFFE705062BD53E
:1037E000150629D594F841002128F5D1A068B0F537
:1037F000805F01D12069B0B1206A411C216221683B
:1038000000784860E08C401E0004000CE084E3D1A6
:103810002068C16821F08001C1602068C16841F062
:103820004001C160D8E7206A0088C0F30800486002
:10383000206A801C2062E5E74006CDD55006CBD536
:10384000CA68204622F04002CA6084F8413000F085
:1038500017F9C1E7953D000870B5040004D094F84D
:103860004100002510B106E0012070BD84F84050F1
:10387000204600F023F8242084F841002068C16825
:1038800021F40051C160204600F09AFB20680169D4
:1038900021F4904101612068416921F02A014161D0
:1038A0002068C16841F40051C1606564202084F83B
:1038B000410084F842006563002070BDF0B585B01A
:1038C00000240646009401940294039400682D4954
:1038D000884254D12C48816941F4804181618169D9
:1038E00001F480410491816941F0040181618069A2
:1038F000264D00F0040004904FF400700090022068
:1039000001900320039069462846FFF72FF82815F9
:10391000CDE90004694628460294FFF727F81D4DBB
:103920001B488027C5E90004C5E902472C616C618A
:10393000AC612846EC61FEF763FF08B1FEF70AFDB3
:10394000F5636E62134D12484435143801C51020DA
:1039500091C5104845F8104944306C61AC61EC6188
:10396000FEF74EFF08B1FEF7F5FCB5630022052116
:1039700025206E62FFF79EF92520FFF78DF905B02F
:10398000F0BD000000380140001002400008014076
:1039900058000240B403002010B5104C01682215F5
:1039A0000B1BA14213D007DC0D4BC9180CD0914260
:1039B00001D12AF01BFA10BD93420BD0B3F56C4F26
:1039C000F9D12AF0F1F910BD2AF00EFA10BD2AF053
:1039D0000FFA10BD2AF00EFA10BD0000004C004096
:1039E00000BCFFBF70472DE9F843044690F8410042
:1039F0001F4616460D46202802D00220BDE8F88357
:103A00007DB176B100206064212084F84100FFF789
:103A1000B3F8A6848046E684A068B0F5805F02D043
:103A200003E00120EAE7206910B12E4600250EE0F0
:103A300000260CE08021204600F081FBA0B9AEB149
:103A400016F8010B21684860E08C401EE084E08C91
:103A500043464FF0000200970028EBD14FF04001A1
:103A6000204600F06CFB30B10320C7E735F8020BAD
:103A7000C0F30800E6E7202084F841000020BDE7FD
:103A80007047FEE70D4808B5416941F00101416109
:103A90004069002200F00100009005210E20FFF790
:103AA00009F90E20FFF7F8F8002205210F20FFF793
:103AB00001F9BDE808400F20FFF7EEB80010024002
:103AC00010B502F0E1FB044A0021044824F0C2FCD6
:103AD0000349086010BD00003CFA0208693C000878
:103AE0000000002000B58FB01C216846FCF775FF70
:103AF0001C2107A8FCF771FF1C484FF02041102241
:103B000001601B494160062181600021C160C0E95C
:103B100004128161C16113020162C0E909139302B9
:103B2000C0E90B13416381631A230F20CDE90231F1
:103B3000CDE9001004921123CDE90531CDE907103C
:103B40000DF1240C01208CE80F000D9107AA6946A5
:103B50000648FFF76DFB08B1FEF7FCFB0548C1699D
:103B600041F48061C1610FB000BD0000240300205A
:103B7000040100A00000014070B586B0002529486E
:103B80000095019502950395816941F008018161D5
:103B9000816901F008010491816941F480718161BA
:103BA000816901F480710491816941F04001816172
:103BB000816901F040010491816941F02001816136
:103BC000816901F020010491816941F00401816162
:103BD0008069154E00F0040004900022C121304697
:103BE000FEF7C5FF01240094CDE901450325694690
:103BF00030460395FEF7BAFE4020CDE90004694641
:103C00003046CDE90245FEF7B1FE8020009001AAC2
:103C1000112082E8310069463046FEF7A7FE06B063
:103C200070BD000000100240000C01400C4810B5AF
:103C30000A4901604FF4E1314160002181600C22AA
:103C4000C160C0E904128161C161FFF705FE00286F
:103C500003D0BDE81040FEF77DBB10BD0038014029
:103C60006C030020FEE7FEE7012024F05DFBFBE78C
:103C700010B5502080F31188BFF34F8FBFF36F8FC3
:103C80002AF092FF18B104494FF0805008600020DC
:103C900080F3118810BD000004ED00E030B58FB056
:103CA00028216846FCF799FE14210AA8FCF795FE26
:103CB00001210804CDE9001000240294022504919A
:103CC000CDE907504FF4E01009906846FFF720F95E
:103CD00008B172B6FEE70F20CDE90A054FF4806007
:103CE000CDE90C4002210AA80E94FFF715F8002830
:103CF00001D072B6FEE70FB030BD70470148FFF744
:103D00003EBB00003C040020F0B502681C4B1D4D7A
:103D10001D4E1E4F1E4C4FF0804C984209D0A042C1
:103D200007D0604505D0A84203D0B04201D0B842C8
:103D300004D122F0700E4A6842EA0E02984209D07D
:103D4000A04207D0604505D0A84203D0B04201D0C0
:103D5000B84203D122F44075CA682A434D6922F063
:103D600080022A4302608A68C2620A6882629842BC
:103D700001D0A04201D10969016301214161F0BD77
:103D8000002C01400004004000080040000C0040EE
:103D90000034014010B5406A0021C185C184FFF79D
:103DA00023FC10BD70B5446A2068406994F8411046
:103DB000C0F3C0100025212904D118B1E5842046A4
:103DC00000F08EF82068406994F84210C0F380102B
:103DD000222904D118B1E585204600F05AF8606C1C
:103DE00040F0100060642046FFF7FEFB70BD10B588
:103DF0000146406A096809684FF0000289062ED41E
:103E0000C28501680C3151E8003F23F4807341E81A
:103E10000034002CF5D10168143151E8003F23F043
:103E2000010341E80034002CF5D10168143151E858
:103E3000003F23F0400341E80034002CF5D120215D
:103E400080F84210016B012909D101680C3151E859
:103E5000003F23F0100341E80034002CF5D1426309
:103E6000016B012902D0FFF797FD10BD818DFFF78F
:103E700095FB10BD10B5406A01214163016B01291A
:103E800002D0FFF7AFFD10BD818D4908FFF786FB1B
:103E900010BD01680C3151E8002F22F4907241E806
:103EA0000023002BF5D10168143151E8002F22F0D6
:103EB000010241E80023002BF5D1016B012909D152
:103EC00001680C3151E8002F22F0100241E8002374
:103ED000002BF5D1202180F84210002101637047AA
:103EE00001680C3151E8002F22F0C00241E80023A4
:103EF000002BF5D1202180F84110704708B590F8CB
:103F00004210222901D0022008BD82684FF480535C
:103F10009A4201D1016921B1816A9A421BD04AB10A
:103F20000AE00268816A5268C2F308020A80816A64
:103F3000891C08E0026972B10268526802F07F02CF
:103F40000A70816A491C8162C18D491E0904090CED
:103F5000C18503D01BE002685268F1E70168CA68B6
:103F600022F02002CA600168CA6822F48072CA6026
:103F700001684A6922F001024A61202180F842105A
:103F800000214163026B012A03D0FFF705FD0020E9
:103F900008BD016301680C3151E8002F22F01002C6
:103FA00041E80023002BF5D101680A68D20602D54A
:103FB0000A6849680091818DFFF7F0FAE7E7000091
:103FC00070B5044600680169E26821F4405111436C
:103FD00001612169A0680843616908432168CA68D2
:103FE00041F20C639A430243CA6020684169A269A6
:103FF00021F44071114341611E492068884202D179
:10400000FEF750FF01E0FEF73DFF00EBC00101EBC2
:104010000012606864218000B2FBF0F3B3FBF1F39F
:104020006FF018067343B2FBF0F5B2FBF0F605EB48
:104030008305322303EB0515B5FBF1F5B6FBF1F66D
:1040400005F0F00505EB0615B2FBF0F6B2FBF0F05B
:10405000B0FBF1F06FF01802504306EB800003EB69
:104060000010B0FBF1F0216800F00F0028448860D8
:1040700070BD00000038014038B581620446828579
:10408000002013466064222284F84220E56B1B4A1C
:10409000AA62E56B1A4AEA62E56B1A4A2A63E26B86
:1040A00050630A462168E06B091DFEF7E7FB2068B4
:1040B000016840680090206948B120680C3050E8E1
:1040C000001F41F4807140E80012002AF5D12068F9
:1040D000143050E8001F41F0010140E80012002AAE
:1040E000F5D12068143050E8001F41F0400140E84D
:1040F0000012002AF5D1002038BD0000EF3D000875
:10410000753E0008A53D000881628285C2850021B8
:104110004164222180F84210016921B10168CA6816
:1041200042F48072CA6001684A6942F001024A6141
:104130000068C16841F02001C160002070472DE98E
:10414000F041984617460E460446069D27E0681C37
:1041500025D02DB1FEF710FDA0EB0800A8421ED916
:1041600020680C3050E8001F21F4D07140E80012A4
:10417000002AF5D12068143050E8001F21F0010119
:1041800040E80012002AF5D1202084F8410084F88C
:104190004200002084F840000320BDE8F081206840
:1041A000006836EA000004D00020B842CFD00020DA
:1041B000F3E70120F9E700000148FFF717BA000014
:1041C0006C030020FEE7490050EAC12018BF04201C
:1041D0004A0D18BF40F0010040F2FF72B2EB515F90
:1041E00008BF40F00200012808BF052070470907FA
:1041F000090E002804DB00F1E02080F8001470476D
:1042000000F00F0000F1E02080F8141D704770B539
:10421000044600256FF02F0608E02068411C21604D
:10422000007805EB850106EB410145182068007810
:1042300000F004F80028F0D1284670BD3038092875
:1042400001D8012070470020704730380A2801D279
:10425000012070470020704710B54421074800F046
:1042600082FE00220521064822F0ECFE054CA060EB
:1042700001F04AFF0020207010BD000014A60020AD
:10428000BD610008880200202DE9F0470E468146F6
:1042900017461146304600F011F900287ED0002262
:1042A0003946304600F0B6F800284FF0000076D1CD
:1042B000B6F904C0B6F90030F288ACEB03010FFA8E
:1042C00081FAB6F90210B7F80280521AA8EB010879
:1042D0000FFA88F812B2B8F1000F0EDD63F30F0485
:1042E0006CF30F0501EB080061F31F4460F31F45F9
:1042F000C9F800400120C9F80450B7F906107388C6
:10430000CB1AD21A12B2002A13DDB6F9063099423E
:104310000FDA338863F30F04B38861F31F4463F348
:104320000F05114461F31F4509EBC001401C0C60EF
:104330004D60B7F90220B6F902108A4200DD11463D
:10434000B7F90630B6F90620934200DA1A463B88E0
:10435000B6F900C0521AA3EB0C031BB212B2002B29
:1043600010DD002A0EDD634463F30F058B1863F341
:104370001F456CF30F0409EBC00361F31F441C607D
:104380005D60401CB7F904703388FE1AAAEB06037F
:104390001BB2002B11DD67F30F0401E00FE00CE00E
:1043A00061F31F443B4463F30F05114461F31F4560
:1043B00009EBC001401C0C604D60BDE8F0874FF078
:1043C000FF30FAE770B5B1F90030B2F90040A3420E
:1043D00000DC23460380B1F90250B2F90240A54245
:1043E00000DD2C464480B1F90460B2F90450AE42BD
:1043F00000DA35468580B1F90610B2F906209142FF
:1044000000DB1146C1800120AB4201DC8C4200DDA3
:10441000002070BDF8B50D460446B0F90000B1F9B2
:1044200000101646884247DBB4F90210B5F90220A5
:10443000914241DBB4F90410B5F9042091423BDC10
:10444000B4F90610B5F90620914235DC96B3ADF803
:1044500000006088ADF8020032466946284600F048
:1044600099F8002827D0A088ADF800006088ADF842
:10447000020032466946284600F08CF800281AD01F
:104480002088ADF80000E088ADF8020032466946A9
:10449000284600F07FF800280DD0A088ADF8000075
:1044A000E088ADF8020032466946284600F072F80E
:1044B000002800D00120F8BD0020F8BDB0F9002090
:1044C000B1F904309A4213DCB0F90420B1F900309C
:1044D0009A420DDBB0F90220B1F906309A4207DCAE
:1044E000B0F90600B1F90210884201DB01207047E3
:1044F00000207047F8B50D460446B0F90400B1F944
:1045000000101646884243DBB4F90600B5F90210E4
:1045100088423DDBB4F90000B5F90410884237DC6D
:10452000B4F90210B5F90620914231DC76B3ADF84A
:1045300000006088ADF8020032466946284600F067
:1045400029F818BBA088ADF800006088ADF802001B
:1045500032466946284600F01DF8B8B92088ADF803
:104560000000E088ADF8020032466946284600F0B7
:1045700011F858B9A088ADF80000E088ADF8020045
:1045800032466946284600F005F808B10020F8BD1B
:104590000120F8BD2DE9FC4114460E46B1F900207A
:1045A000B0F9001005468A423ADBB5F904008242B0
:1045B00036DCB6F90270B5F90220974230DBB5F966
:1045C00006309F422CDC002C75DD401A9A1A401CE4
:1045D000521C00B212B200EBD07002EBD27240104B
:1045E0005210904200DB1046844200DD0446ADF8D4
:1045F0000010288800222044ADF804006888ADF837
:104600000200688831462044ADF806006846FFF78E
:10461000C1FF40B1BDF804002044ADF804003FE004
:104620000020BDE8FC81E8880022001BADF80200F4
:10463000E888ADF8060031466846FFF7ABFF28B1C1
:10464000BDF804002044ADF8040011E0A888002261
:10465000001BADF80000A888ADF80400314668469C
:10466000FFF798FF50B1BDF80000001BADF8000047
:10467000BDF80200001BADF8020016E06888ADF836
:104680000200688800222044ADF8060031466846E2
:10469000FFF780FF70B1BDF80000001BADF800000F
:1046A000BDF806002044ADF806003146684620F00B
:1046B0005DF8B6E7FFE70120B3E710B5B1F90040B8
:1046C000B2F900309C4200DA23460380B1F902407F
:1046D000B2F902309C4200DA23464380B1F904402B
:1046E000B2F904309C4200DD23468380B1F9061004
:1046F000B2F90620914200DC1146C18010BD0000D5
:10470000F8B5074622F04CFC0025374C06460095CC
:1047100037B1F8686060384622F062FD606802E0F8
:1047200015F076F9606000691FF01CFF6068406951
:1047300008B11FF017FF6068C0691FF013FF6068C1
:10474000006A1FF00FFF6068016991B120F0C2F8A4
:1047500025F00AFA24F034FF6068B0F85011D9B39C
:104760000068017CC9071DD0C0684068D0B100272F
:1047700013E0A0F85051F8BDC11991F8301151B9AA
:1047800000F5AC7000F046FC616801EBC7010A6BF4
:104790000260496B41607F1CBFB26068B0F8501185
:1047A000B942E9D860684FF4807130301BF086FB65
:1047B0006068202100F598701BF080FB6068A0F80D
:1047C0005051304622F0E6FB009060680068436A72
:1047D00013B12268009998471BF0EEF900F032F807
:1047E000BDE8F84000F002B85001002070B50A4D55
:1047F000002400BFC4EBC40655F8260008B11BF026
:104800004FFA05EB86001C211BF058FB641CE4B238
:10481000042CEFD370BD0000F0A6002008494968C1
:104820000AE04A68824202D00A68824203D10A7EC4
:1048300042F001020A7649690029F2D1704700006E
:1048400024010020704700000421014800F08BBBC8
:1048500008A600202021014800F085BB20A60020EA
:104860002DE9FF410446DDE90A671D004FF0000015
:1048700002D1B6F5807F2BD0039001900290ADF865
:104880000C100090ADF80410ADF80A20ADF80E2021
:104890003B463246294668461FF0C8FE3B46324634
:1048A000294601A81FF0C2FE3B463246294602A80F
:1048B0001FF0BCFE3B463246294603A81FF0B6FE59
:1048C000BDF90000BDF90430984209DA054608E058
:1048D0002080491E6080A180521EE280BDE8FF81D9
:1048E0001D46BDF90820BDF90C108A4201DA1646B2
:1048F00000E00E46B54203DA984206DB184604E0B3
:104900008A4201DA104600E00846801E2080BDF988
:104910000030BDF90420934201DD1D4600E015463C
:10492000BDF90800BDF90C10884201DD064600E023
:104930000E46B54205DD934201DD194604E01146FD
:1049400002E0884200DD0146891CA180BDF90230E9
:10495000BDF90620934201DA1D4600E01546BDF977
:104960000A00BDF90E10884201DA064600E00E4644
:10497000B54205DA934201DA194604E0114602E035
:10498000884200DA0146891E6180BDF90230BDF916
:104990000620934201DD1D4600E01546BDF90A00E0
:1049A000BDF90E10884201DD064600E00E46B54214
:1049B00005DD934201DD194604E0114602E088421C
:1049C00000DD0146891CE18088E700002DE9F04107
:1049D00015460E460746114C22F0E2FA80462B4659
:1049E00032463946204619F0DDF920B10020A06298
:1049F000E06950B110E02C2120461BF05FFA4FF027
:104A00000040A0620020BDE8F081404622F0C2FADA
:104A1000E06108B90120E0612046F4E744A60020E7
:104A200010B51421074800F09EFA19F081F940B141
:104A30000549016005494160054981600549C1603A
:104A400010BDFEE72CA6002009D7010885DA010871
:104A500051DC0108D5D6010870B50D460446102179
:104A600028461BF02BFA20680078012804D0022881
:104A700007D0042807D008E0A08A2880E08A688050
:104A800003E0E06800E00A20686020684268002ACD
:104A900003D02946BDE87040104770BD2DE9FE43A4
:104AA0000446808A10B9E08A002873D0D4F82C809C
:104AB0005FEA080010D120460AF0D9FF5FEA00083B
:104AC00068D020460DF0CEFF00220921404618F0A4
:104AD0006DF8607880075DD44FF4807900274E46EA
:104AE0004546002128461DF049FE384407B2002102
:104AF00028461DF061FEC11700EB116000127043E3
:104B000006B228461CF038FE0500EAD10FB94E4522
:104B10000CD0784201B24FF4803090FBF6F002B234
:104B20006B4604F1140000951FF080FDADF80450B1
:104B3000ADF8085094F8400000F00F0003284046FC
:104B400016D01CF06BFF064640461CF021FE0346C3
:104B50000C200090B4F91610324640460AF044FB8F
:104B6000ADF8080040461CF065FEC10713D018E000
:104B70001CF0E8FE064640461CF084FE0246032078
:104B80000090B4F91410334640460AF02DFBADF8FE
:104B90000400E7E736E0BDF90410002901DDADF8B7
:104BA0000450810705D4BDF90410002901DAADF8DD
:104BB0000450410705D4BDF90810002901DDADF806
:104BC0000850000705D4BDF90800002801DAADF847
:104BD000085002AA01A9204625F096FBBDF908203D
:104BE000BDF90410404600F08AFA6078800709D4C5
:104BF000208BBDF8041008442083608BBDF808109A
:104C000008446083BDE8FE832DE9FC5F0446C06A6A
:104C10005FEA000B71D094F8400000076DD019F0E6
:104C200053FB019000684021457E58461DF0F0FE80
:104C30004FF0000818B9A4F81E80A4F81C8058464C
:104C40001CF0DEFE824658461CF0E1FE064694F853
:104C500040004FF0640900F00F000C2802D0032838
:104C60004CD09AE0A4F81C8056B1B4F91E5000272D
:104C700019F02AFB0068407EC0F16401484622E03A
:104C8000B4F91E00C5F16401484390FBF9F0E083DC
:104C900058461CF07DFD054658461CF0BFFE0246F6
:104CA0000C200090B4F91E102B4658460AF09CFACE
:104CB000E083024600231EE07A1917B201FB05F2D9
:104CC00092FBF0F215B2002DF6D1ADF80070A4F809
:104CD0001E806A460021204625F016FB41F6FF7231
:104CE000BDF90030514258460BF058F8BDF800109D
:104CF0000123084402B200214CE09AE0A4F81E808F
:104D0000BAF1000F0AD0B4F91C50002719F0DCFAF0
:104D100000684946407EC0F1640022E0B4F91C00FE
:104D2000C5F16401484390FBF9F0A08358461CF09C
:104D3000A9FD054658461CF005FE034603200090D9
:104D4000B4F91C102A4658460AF04EFAA0830146D0
:104D500000231EE07A1917B200FB05F292FBF1F274
:104D600015B2002DF6D1ADF80070A4F81C80002219
:104D70006946204625F0C8FA41F6FF72BDF90030B9
:104D8000514258460AF082FFBDF800100123084442
:104D900001B2002258461EF05BFFA08B002848D1CC
:104DA000E08B002845D1C6B958461CF037FE0546B1
:104DB00058461CF0EDFC002D06DC00280DDD002D12
:104DC00002DA01232A4604E0002806DA01234042E1
:104DD00002B2002158461EF03BFFBAF1000F19D174
:104DE00058461CF04FFD054658461CF0ABFD002D03
:104DF00007DC00280EDD002D03DA012300222946FE
:104E000005E0002806DA01230022404201B258469C
:104E10001EF01EFF0A215846019A17F0C7FE60785F
:104E2000800706D414F8400F20F00F00207044F8DB
:104E3000148CBDE8FC9F7FB50E46040003D114F02E
:104E4000E7FD04002CD014F057FE002828D094F879
:104E50002800400724D4002506B3ADF80050ADF873
:104E60000250204614F0ECFD401EADF80400204630
:104E700014F02CFE401EADF806006A46314602A82A
:104E8000FFF7A0FA00280BD02068017C890708D51D
:104E9000DDE90001C4E90C01012029E0A4F850512A
:104EA0007FBD82690AB102A9904700260AE004EB9F
:104EB000C601002202A83031FFF7ACFA0028EFD17A
:104EC000761CB6B2B4F85001B042F0D880B22028B7
:104ED00004D204EBC00002A9303004E0A4F8505121
:104EE00004F13000694612F013FBB4F85001401C85
:104EF000A4F8500160680028D2D022F07DF97FBD6F
:104F000070B5054600F012F804460CE0214628462C
:104F100000F01EF806462146284600F0A2F820467A
:104F20001AF0BEFE3446002CF0D170BD002800D02F
:104F30004068704700B503460022FFF7F7FF03E023
:104F40001846521C00F004F80100F9D1104600BDCB
:104F50000068091D40587047006840587047002895
:104F600000D08068704700224260C91C21F0030114
:104F700082600160704770B50446006808301AF01E
:104F800003FE050013D001460022204623F02EF92F
:104F900029462046626823F023F9616819B12A4640
:104FA000204623F023F96560A06800B9A560284673
:104FB00070BD2DE9F0410C4606000AD04CB1FFF758
:104FC000B5FFA04208D13046FFF7D5FF051E01D03E
:104FD0001EE00020BDE8F081306808301AF0D4FDF2
:104FE000051EF7D030682A4607593046394623F067
:104FF000F7F83A462946304623F0F8F82A46214683
:10500000304623F0F3F822462946304623F0E8F8EC
:105010002846DFE770B50446006808301AF0B4FD92
:10502000050013D001460022204623F0D9F8294676
:105030002046A26823F0DAF8A16819B12A46204672
:1050400023F0CEF8A560606800B96560284670BDA1
:1050500028B1416809B9806808B100207047012073
:10506000704770B504000DD0FFF760FF0022884242
:10507000204608D1FFF76CFF6060011E01D00022BE
:105080001EE0A26070BDFFF76AFF884220680844F6
:105090000AD10168A16029B12046BDE87040002214
:1050A00023F09EB8626070BD05682046FFF750FF90
:1050B000064602462946204623F092F82A46314603
:1050C0002046BDE8704023F091B810B50446006852
:1050D00082680AB12146904720680068002801D004
:1050E0002060F5E710BD8068002801D0B0F91600F7
:1050F00070478068002801D0807E8009704770B5B5
:10510000164605460C4651EA06001AD028461BF002
:105110003BFCA86801233246018A21440182A86829
:10512000418A31444182214628461DF0E9FF002290
:105130000B21284617F03AFD012803D128461DF01F
:1051400039FF012070BD77B581B00E46050017D03C
:1051500062221DF041FA040012D0206880B1284676
:10516000314663221DF038FA10F0FF0208D02368A0
:105170002046039998470090BDF80000ADF80C0058
:10518000039804B070BD00002DE9F047074692B0C7
:10519000408C1A9E40F00400788490463A849946E8
:1051A0008A46328938461DF017FA0546A7F820903E
:1051B0003289514638461DF00FFA0446788CA542D4
:1051C00020F00400788403D12904B1EB044F68D0A7
:1051D000A7F820803289514638461DF0FDF9054672
:1051E0008046A7F82090514638460CF097F931894F
:1051F00000682A4620F01EFE30890B2823D147F68E
:10520000FF794D4501D04C451DD138461DF0B7FB07
:1052100000EBD070451038461CF06DFA00EBD070F2
:105220004010C84506D1691C431C994200DA00E0D1
:10523000194688464C4506D1691C421C914201DA48
:105240006C1C00E014461948FFF795FE05002BD0B2
:105250002F60C5E903843089A8806846C5F808A096
:1052600011F06CFC1248FF21CDE90050114802906A
:105270001148039000200890CDE9090130880B9077
:1052800070889DF8421040420C90F0680790002012
:1052900060F300018DF8421030690690684611F005
:1052A000C1FC12B0BDE8F087FEE7000038A6002080
:1052B00055D902083DDB020899DA02081421014899
:1052C000FFF751BE38A600202DE9F84F0025904683
:1052D000894606462C460427E6E000BFF06807EB47
:1052E000C401405881017CD480B230EA090112D057
:1052F0005FF0000230EA08000FD00020824270D038
:10530000F0686A46102150F83400824620F0F4FA22
:10531000002871D103E00122ECE70120EEE76A46A4
:105320001121504620F0E8FA002865D16A46122182
:10533000504620F0E1FA00285ED16A46132150461B
:1053400020F0DAFA002857D16A461521504620F09D
:10535000D3FA002850D16A461421504620F0CCFAE6
:10536000F0BB6A460A21504620F0C6FAC0BB6A4626
:105370006B21504620F0C0FA90BB6A466C21504623
:1053800020F0BAFA60BB6A460121504620F0B4FA18
:1053900030BB6A460421504620F0AEFA00BB6A4694
:1053A0000221504620F0A8FAD0B96A46032150469F
:1053B00020F0A2FAA0B96A460521504620F09CFAD6
:1053C00070B96A460621504620F096FA40B96A46FE
:1053D0003221504620F090FA10B96A466E2101E061
:1053E0000AE060E0504620F087FA28B96A466D214D
:1053F000504620F081FA10B10320BDE8F88F6A46CC
:105400006921504620F078FAF0BB6A466A2150467E
:1054100020F072FAC0BB6A466E21504620F06CFA4A
:1054200090BB6A466D21504620F066FA60BB6A4622
:105430003721504620F060FA30BB6A46382150468A
:1054400020F05AFA00BB6A463521504620F054FA43
:10545000D0B96A464021504620F04EFAA0B96A46BB
:105460004521504620F048FA70B96A46412150461D
:1054700020F042FA40B96A464221504620F03CFAF8
:1054800010B96A46432100E009E0504620F034FAA2
:1054900028B96A464921504620F02EFA08B1022563
:1054A00001E005B90125641C708CC0F3C500A04261
:1054B0003FF614AF2846A0E7014840687047000057
:1054C000500100207047C0F30410072800D90720BE
:1054D00070470000A0F57F41FF3905D0002804D0B7
:1054E000712803D208490AE01F2070470749713824
:1054F00080B2096829B1064A5268904201D2085C1C
:105500007047002070470000086A0308B4020020BA
:10551000C802002010B518210348FFF724FD0349F5
:105520000120087010BD0000E4A50020D00200207A
:105530002DE9F04190460C46050015D0FBF700F927
:105540000A4F06462146BA68284690470446BA687C
:105550002819414690470146701A03E06218AA5C78
:105560002A55641CA042F9D2BDE8F081E402002073
:105570002DE9F041094D90460E466A681C460746E3
:1055800019469047306020B120686A68384400218D
:105590009047C8F80000BDE8F0810000E402002058
:1055A0002DE9F04F87B08A46DDE910581F46934633
:1055B0000446002105B129805CB12078002809D07B
:1055C000BAF1000F05D0002618F0060F15D0002004
:1055D00004E0002007B0BDE8F08F401C215C0A29E0
:1055E00004D00D2902D00029F7D100E0401C002D85
:1055F000F0D04FF0FF312980ECE75FEA887001D5E9
:1056000041F6FF77894608468DF81410049127E08B
:105610000498CDF8189068B34FF0000C05AA06ABBB
:10562000CDF80CC0CDF80080CDE9013220443B46D6
:105630005A46514621F022FF06997A1A314417B290
:105640000EB288B104990144049120780A280BD045
:105650000D2809D0605C0A280FD00D280DD008460F
:10566000205C08B1002FD3DC049848B105B12E802E
:105670000498AFE74FF0010CD0E7481C0490F3E723
:10568000064A04A9204652689047002DF0D00146F2
:105690000022504617F09EFB06B2E8E7E402002025
:1056A0002DE9F0411746884606001ED0002F1CD079
:1056B000FBF746F804463846FBF742F8050014D0DD
:1056C0000B4A2C444146926830469047411903E00A
:1056D000621BB25C3255641EA142F9D930442A469D
:1056E0003946BDE8F0411AF0ABBBBDE8F0810000DF
:1056F000E402002000230278232902D0012A0DD0E1
:105700000FE02AB10021012A04D0022A04D008E0C7
:10571000012101E0017004E0017001E0202902D0C4
:105720000123184670470221F6E72DE9F0410E46A5
:105730008046024600213346084622F0DDF8044642
:105740000027401C1AF020FA050008D02F553346D8
:105750004246611C22F0D0F82846BDE8F081FEE701
:105760002DE9F0471E4614460D468246DDF820908E
:1057700015E000BF4FEA540808FB0657394650466B
:105780004A469047002808DD44F30000C0EB54046B
:1057900007EB0605A4F1010401E005DA4446002CFC
:1057A000E8D12046BDE8F0873846FBE72DE9FC5FED
:1057B0009B460CAB8A468146DDE9116093E81210E6
:1057C000DDE90F575FEA80784FF030031AD45EB1FD
:1057D0005FEAC07808D000F00C0858EA0C0803D043
:1057E000761E01E00B55641CBC4204D2202CF9D378
:1057F00001E00B55641C5FEAC07803D0B44201D2CB
:10580000202CF6D35FEAC06825D55FEA40580AD459
:105810004CB1BC4201D0B44205D1641E03D0102D5E
:1058200003D1641E04E0102D02D0022D0AD00EE038
:10583000850603D4202C1ED2782506E0202C1AD20F
:10584000582502E0202C16D262250D55641C202C10
:1058500011D20B55641C202C0DD2BCF1000F01D0CD
:105860002D2306E0430701D52B2302E0030702D5D1
:1058700020230B55641CCDE900BAC8461546814665
:105880008B46AA46800714D1274607E02A46DDE961
:1058900000316D1C2020C446E0477F1CB742F5D381
:1058A00007E02A466D1C641EDDE900311BF8040088
:1058B000C047002CF5D15FEA897006D409E02A467A
:1058C000DDE900316D1C2020C047A5EB0A00B04285
:1058D000F5D32846BDE8FC9F2DE9F04F8FB09946DF
:1058E0008B46DDE91818DDE91C63DDE91A479246AD
:1058F0008646002209B923F01003580507AD00D5EC
:10590000C9B1B1FBF4F004FB1010C0B20A2801D2F7
:10591000303009E05FEA836C02D54FF0410C01E0C2
:105920004FF0610C60440A38B1FBF4F1A854521CEA
:1059300009B1202AE5D3CDF80880CDE90563CDE98A
:105940000052CDE903474B46524659467046FFF791
:105950002DFF0FB0BDE8F08F2DE9FF4F8FB01CACCD
:10596000DDE9239594E8030820AC94E8C004002402
:1059700050EA010201D125F010056A050DF11C085D
:1059800002D550EA010217D032463B46FAF700FD35
:10599000D2B20A2A01D2303206E0AB0601D5412349
:1059A00000E061231A440A3A08F80420641C50EA13
:1059B000010201D0202CE7D3CDE90084CDF808B056
:1059C000CDE90595CDE9036A0FAF97E80F00FFF722
:1059D000EDFE13B0BDE8F08F9A4200D288547047B4
:1059E000704700002DE9FF4F89B005460A98002452
:1059F0009246002800D1FE4D8FE1252804D0224692
:105A0000641C53460A990BE2491C4FF000080846F3
:105A10000C9101782B2919D004DC202919D02329D5
:105A200004D119E02D290ED0302909D00026C8B2A2
:105A3000FEF704FCB0B10CA8FEF7E9FB06461FE038
:105A400048F001010AE048F0020107E048F00401D3
:105A500004E048F0080101E048F01001401C8846CD
:105A60000C90D6E70C9908782A2809D1169840C8D6
:105A70001690002E02DA48F002087642491C0C917A
:105A80000C984FF0000B01782E2919D1401C0C9076
:105A900048F480680078FEF7D1FB20B10CA8FEF72F
:105AA000B6FB83460CE00C9A10782A2808D1169988
:105AB00001C91691002800DC0020521C83460C927C
:105AC0000C9801786C290AD004DC68290FD06A2967
:105AD00019D128E0742929D07A2914D126E0401C54
